:1000000000180020C100000069250000352500000F
:100010003525000035250000352500003525000078
:100020003525000035250000352500006925000034
:100030006925000035250000692500002525000000
:100040006925000069250000692500006925000078
:100050006925000069250000692500006925000068
:100060006925000069250000692500006925000058
:10007000A92B000049300000E1350000692500008F
:100080006925000069250000692500006925000038
:100090006925000069250000013B0000692500007A
:1000A0004113000069250000692500006925000052
:1000B0006925000069250000692500006925000008
:1000C00038B502F055FA454A454B1A60454A464B49
:1000D0001A60464A464B1A60464B0822197811426C
:1000E00002D019780A431A70434B2A221A7000234F
:1000F000424A43499A188A4204D24249C9580433B1
:100100001160F5E7404B41491A1F181D00238A4230
:1001100002D21360031CF6E73D493E4A5958101CB1
:1001200099500433C02BF7D100239A083A49920022
:10013000521803211940C9001568FF248C40A543BB
:100140002C1C80258D40291C214301331160202B5C
:10015000EBD1324B8A221860314B1A70314B24227A
:100160005A70A0221A709A799107FCD59A79D5060F
:10017000FCD498790C212B4A01400829F9D103219C
:100180001171402151719A799106FCD59A795506E1
:10019000FCD52549254A1160224A20211170997900
:1001A0000C220A400C2AFAD1214A224B1A60224A18
:1001B000224B1A60224B00221A60224B07221A603F
:1001C000214A224B1A6062B600F092FF04F044FB11
:1001D00002F0D4F902F04CF9FEE7C046300004F01A
:1001E00034800440823F0000388004400100000F4A
:1001F0003C80044002D0074000E00740700200202D
:10020000600400205055000064040020D80800203D
:100210000000000000F9FF1F00E400E008ED00E02E
:100220000050064000400640000001104480044099
:10023000C0000505048004407FBB000014E000E01E
:1002400018E000E010E000E00000202020ED00E0D9
:10025000FFFFFFFFFFFFFFFFFFFFFFFFFFFFFFFFAE
:10026000FFFFFFFFFFFFFFFFFFFFFFFFFFFFFFFF9E
:10027000FFFFFFFFFFFFFFFFFFFFFFFFFFFFFFFF8E
:10028000FFFFFFFFFFFFFFFFFFFFFFFFFFFFFFFF7E
:10029000FFFFFFFFFFFFFFFFFFFFFFFFFFFFFFFF6E
:1002A000FFFFFFFFFFFFFFFFFFFFFFFFFFFFFFFF5E
:1002B000FFFFFFFFFFFFFFFFFFFFFFFFFFFFFFFF4E
:1002C000FFFFFFFFFFFFFFFFFFFFFFFFFFFFFFFF3E
:1002D000FFFFFFFFFFFFFFFFFFFFFFFFFFFFFFFF2E
:1002E000FFFFFFFFFFFFFFFFFFFFFFFFFFFFFFFF1E
:1002F000FFFFFFFFFFFFFFFFFFFFFFFFFFFFFFFF0E
:10030000FFFFFFFFFFFFFFFFFFFFFFFFFFFFFFFFFD
:10031000FFFFFFFFFFFFFFFFFFFFFFFFFFFFFFFFED
:10032000FFFFFFFFFFFFFFFFFFFFFFFFFFFFFFFFDD
:10033000FFFFFFFFFFFFFFFFFFFFFFFFFFFFFFFFCD
:10034000FFFFFFFFFFFFFFFFFFFFFFFFFFFFFFFFBD
:10035000FFFFFFFFFFFFFFFFFFFFFFFFFFFFFFFFAD
:10036000FFFFFFFFFFFFFFFFFFFFFFFFFFFFFFFF9D
:10037000FFFFFFFFFFFFFFFFFFFFFFFFFFFFFFFF8D
:10038000FFFFFFFFFFFFFFFFFFFFFFFFFFFFFFFF7D
:10039000FFFFFFFFFFFFFFFFFFFFFFFFFFFFFFFF6D
:1003A000FFFFFFFFFFFFFFFFFFFFFFFFFFFFFFFF5D
:1003B000FFFFFFFFFFFFFFFFFFFFFFFFFFFFFFFF4D
:1003C000FFFFFFFFFFFFFFFFFFFFFFFFFFFFFFFF3D
:1003D000FFFFFFFFFFFFFFFFFFFFFFFFFFFFFFFF2D
:1003E000FFFFFFFFFFFFFFFFFFFFFFFFFFFFFFFF1D
:1003F000FFFFFFFFFFFFFFFFFFFFFFFFFFFFFFFF0D
:10040000FFFFFFFFFFFFFFFFFFFFFFFFDEF9FFFF23
:1004100010B5064C2378002B07D1054B002B02D0DA
:10042000044800E000BF0123237010BD60040020D9
:10043000000000005055000008B5084B002B03D009
:100440000748084900E000BF07480368002B03D0B5
:10045000064B002B00D0984708BDC04600000000A6
:1004600050550000640400206004002000000000DB
:1004700010B5041C00F0FEFD2368C01A10BDFFFF7C
:1004800010B50948FFF7F4FF084C20600E2000F07B
:100490009BFDA36841424141C9B201330C20616018
:1004A000A36000F071FD10BD100500209C04002029
:1004B00008B5011C014801F0CFFF08BDEC04002085
:1004C00008B5011C014801F0C0FF08BDEC04002084
:1004D00000B58DB0021C084904A804F0D1FA04A9A3
:1004E000684601F033FF6846FFF7EAFF684601F00F
:1004F000E9FE0DB000BDC0460C51000000B58DB046
:10050000021C084904A804F0BBFA04A9684601F0DB
:100510001DFF6846FFF7D4FF684601F0D3FE0DB01B
:1005200000BDC0461051000030B5134B85B01D789A
:10053000124C002D0AD02068A16801F0EFFA01F0FA
:100540001FFB201CF02101F03BFF12E00C48A268C9
:10055000036821685B68984701F042FD291C6846E2
:1005600001F0F4FE201C694601F022FF684601F00C
:10057000A9FE05B030BDC0460C050020EC040020EB
:100580009806002008B5054B0A201B78002B00D0E8
:10059000F720FFF78DFFFFF7C7FF08BD0C05002010
:1005A00010B5141CCAB01A0CD2B2031C00910194ED
:1005B0000AA8084904F064FA0AA906A801F0C6FED0
:1005C00006A8FFF77DFF06A801F07CFEFFF7DAFF23
:1005D0004AB010BD14510000031C413B192B01D837
:1005E000203004E0031C613B192B01D82038C0B235
:1005F000704708B5FFF7F0FFFFF75AFFFFF7C2FF9C
:1006000008BDFFFF10B5054C0021201C2C2204F072
:1006100075F901235B42636010BDC046BC04002035
:1006200010B572B6FFF7EEFF00240D4B0021E05825
:100630001022043404F062F9142CF6D1094B4C2238
:100640009A73094B53229A73084B47229A73084BAB
:1006500041229A73074B4D229A7362B610BDC04671
:10066000740200209C04002014050020FC040020DB
:10067000AC0400207C04002010B50B20012100F008
:10068000B5FC0C20012100F0B1FC0D20012100F08F
:10069000ADFC1420002100F0A9FC0F20002100F087
:1006A000A5FC0E20022100F0A1FC0E200C49042222
:1006B00000F02CFC0B4B00221A700124FFF7B0FF56
:1006C000094B211C0D201C7000F05EFC211C0B202E
:1006D00000F05AFC0C20211C00F056FC10BDC04656
:1006E000810400000C050020E804002030B50B2038
:1006F00085B0012100F048FCFA24A400142000F089
:1007000057FB051C1248FFF7B3FEFFF7E1FE202060
:10071000FFF7CEFE28B2FFF7DBFEFFF733FFE12342
:100720005B01013BFDD1013C002CE7D1211C0B20DA
:1007300000F02AFC0749684601F008FE6846FFF70A
:10074000BFFE684601F0BEFDFFF71CFF05B030BDDF
:1007500010050020235100007FB5041E5A2C16D12D
:1007600072B600F087FCB14B1860FFF74BFFB04B3F
:1007700001221A7062B60025AE4B291C0B201D7099
:1007800000F002FC0C20291C00F0FEFBECE05428D9
:100790000FD1A949684601F0D9FD6846FFF790FEE0
:1007A000684601F08FFDA148FFF762FEFFF7A6FE45
:1007B00039E1502800D1D7E0442803D10A2000F0C5
:1007C0007DFCD1E0031C313B082B0AD89748FFF78A
:1007D0004FFE2F3C964B0122A4005242E0505A603B
:1007E00023E1522811D1924A00245368591C5160C8
:1007F000082902DCD91C89008C58981CFFF768FE78
:100800003A20FFF755FE201CFDE0492819D1884BFE
:10081000012252425A6000241D1C884B013BFDD12D
:100820008248FFF725FEA300EB189860201C3130AA
:10083000C0B20134FFF73CFEFFF7A4FE092CECD157
:10084000F3E0462802D1FFF7EBFE8DE0562811D1E8
:10085000FFF7C2FEFFF72CFE2020FFF729FE7849A4
:10086000684601F073FD6846FFF72AFE684601F00E
:1008700029FDD8E047280BD1724C2068FFF728FEED
:10088000FFF780FE00232360A36001232373CCE0E5
:10089000412801D16C4B1DE0422812D16348FFF77B
:1008A000E7FD6A490022051C172001F049FC201CC5
:1008B000FFF792FEFFF7FCFD2020FFF7F9FD281C53
:1008C000A1E0532803D1172001F0CEFC4CE04D28C5
:1008D00006D15F4B00221A609A6001221A7342E02F
:1008E0004E2820D1514E5B4A316868468B180093E0
:1008F000FFF7BEFD051C201CFFF76EFEFFF7D8FDBD
:100900002020FFF7D5FD281CFFF7F8FDFFF73AFE82
:10091000301CFFF7ADFDA842FAD34F4801F0B4F800
:1009200001F02EF981E043280ED1142000F040FAA6
:100930004A4C0123191C221C6E2800DC0023636032
:1009400051731173432017E0632804D1434B0022F5
:100950005A731A7308E0452801D1404C12E04C2824
:1009600004D13F4B01225A73201C05E06C2806D1AC
:100970003B4B00225A736C20FFF73BFE55E04A28A0
:1009800009D1374CE36820686168A268FFF708FE68
:100990000023A36049E0552804D1FFF72AFEFFF7A2
:1009A000A5FE42E0512831D1FFF716FEFFF780FD8A
:1009B0002C49684601F0CAFC6846FFF781FD68468D
:1009C00001F080FC0F2000F0F3F9FFF781FD2649CC
:1009D000684601F0BBFC6846FFF772FD684601F00F
:1009E00071FC142000F0E4F9FFF772FD1F4968461E
:1009F00001F0ACFC6846FFF763FD684601F062FC5D
:100A00000E2000F0D5F9FFF763FD0CE018496846A9
:100A100001F09CFC6846FFF753FD684601F052FC6C
:100A2000201CFFF745FDFFF7ADFD7FBD1005002041
:100A3000BC040020E804002027510000102E000014
:100A40002A510000FC040020AC04002088130000A0
:100A50007C040020F0D8FFFF09903C6314050020BF
:100A60009C0400202C510000305100003C5100003B
:100A700047510000F0B5624C87B021780D2000F09E
:100A800083FA604D2B7B002B13D00F2000F090F9E0
:100A9000E1239B0098420CDD5B48FFF7E9FCAB6863
:100AA00001220133AB6000232B732378286053406D
:100AB0002370564D2B7B002B11D0162000F078F9B7
:100AC00014280CDD5048FFF7D3FCAB68012201333A
:100AD000AB6000232B7323782860534023700120E0
:100AE00001F068F8061C701E8641F6B20196002ED1
:100AF00007D0474D2B7B002B03D0464B1F78002F90
:100B00006ED0454D2B7B002B19D0142000F050F9EE
:100B10006968002902D16E2802DC10E059280EDC39
:100B20003948FFF7A5FCAB6801220133AB6023789D
:100B30006E68534023707342734128606B600024D9
:100B400072B6364B0021E3585A7B8A420BD09F681D
:100B50008F4208DD324A1D1C101CC4CDC4C02D6854
:100B600005609960012162B6002906D02C4B1868F7
:100B700059689A68DB68FFF713FD0434142CDFD141
:100B8000019E002E22D0234B1B78042B18D1254B1D
:100B900002A8197801394B425941234BC9B2197047
:100BA000002903D0F02101F015FC01E001F0CEFB9B
:100BB00002A91E4801F0FCFB02A801F083FB05E03E
:100BC000052B03D1174B1878FFF7C6FD01F066F926
:100BD000002812D001F01AF9C0B2FFF7BDFD0CE0F9
:100BE0000948FFF745FCAB6801220133AB6023786D
:100BF000286053402F73237083E707B0F0BDC046D1
:100C0000E8040020FC04002010050020AC040020B3
:100C10007C040020860800201405002074020020B7
:100C20008C040020880800200C050020EC04002023
:100C300010B500F01FFA064B064C18600021201C6E
:100C400001F084FB201C0449044A03F0EDFD10BDB3
:100C500010050020EC040020C522000070020020D6
:100C6000F0B51E4B1A6880231A40FAD172B61C4B9D
:100C70001978002930D01B490C681B490F681B49A3
:100C80003C190E681A49A4190D681A4964190868B4
:100C900019492418096819486418A4B21849640845
:100CA0000C43A4B20460174C174800682568174C21
:100CB000AC462768164C60442668164CC019256857
:100CC000154C801924684019001980B2400801436E
:100CD000124889B201601A7062B6F0BD24B00340B8
:100CE0002505002038B003403CB0034040B003402D
:100CF00044B0034048B003404CB003402CB0034024
:100D00000080FFFF5CB0034058B0034060B0034078
:100D100064B0034068B003406CB0034030B003409F
:100D20001B4B1C4A19781C4B082901D1002102E0F9
:100D30000A2903D138211160132206E00C2901D1C0
:100D4000342100E03C21116012221A60134B1A7802
:100D5000134B002A01D0002200E001221A60114B3F
:100D60001A78114B012A01D880220CE0042A01D8FC
:100D7000842208E0082A01D8852204E0102A01D83C
:100D8000862200E087221A60084B01221A70704701
:100D90008802002008B003400CB003402705002063
:100DA00020B003408902002024B003402505002024
:100DB000031C70B50020272B32D81A4AD45CFF2CB4
:100DC0002ED0194B1B78834201D0FFF749FF72B632
:100DD000164B1022610605D51968914319603F230F
:100DE0001C4002E019680A431A60114B114D0122A0
:100DF0001C602A7062B61E1C72B633681A0608D5CB
:100E00000D4B186800232B7062B60C4B1B781841F1
:100E100006E02B78002BDBD062B601F05FFBEBE73E
:100E200070BDC04659510000250500200CB003409C
:100E300000B003402605002010B003402405002028
:100E40007047FFFF38B5074B1C681C60064BDA681B
:100E50001D1CA30700D590472B69620700D5984752
:100E600038BDC046A09004408C02002038B5244B09
:100E7000244C1D681D60636A2A0700D59847A36A41
:100E8000EA0600D59847E36A6A0600D59847236BBF
:100E90002A0600D59847636BAA0600D59847E36BEE
:100EA000EA0700D59847A36DAA0700D59847E36DD8
:100EB0006A0700D59847144B1D681D60A368EA07B0
:100EC00000D5984763692A0600D59847A369EA06C2
:100ED00000D59847E3696A0700D59847236A2A072F
:100EE00000D59847A36BAA0700D59847236DAA069B
:100EF00000D59847636D6A0600D5984738BDC0464F
:100F0000A0B004408C020020A0C0044070B5041EB4
:100F10001A2C2CD8042A2AD8101C02F0BDFE07096E
:100F2000050B03000B2306E00A2304E0082302E07C
:100F30000C2300E009230C2262430D480D4E821859
:100F40000D485268051CB8352E600C4DBC3005604C
:100F500072B60B481568A40028400A4D1060615114
:100F60008021490408431B041843106062B670BD19
:100F700084510000450E000000F9FF1F6D0E0000B7
:100F8000FFFFF0FF8C02002010B51A2818D80C23A0
:100F900058430C4A835810181C7D027A224205D00F
:100FA000002901D01A710BE01A7209E043681A682F
:100FB000002902D003210A4301E002218A431A607A
:100FC00010BDC0468451000000231A280AD80C2303
:100FD0005843054A81581018027A0B7C13405A1E58
:100FE0009341DBB2181C704784510000F0B51A28F9
:100FF0003DD80C273D1C45431D4A54196368161CF7
:10100000012901D0042912D1784332583018147DB7
:10101000007A20431075A22252001A60202204296F
:1010200001D1196814E0196891430A1C1EE0AA58FE
:10103000247A107DA0431075002902D08A1E012A4F
:1010400012D8802252001A60022903D11A680321A3
:101050000A430BE003290AD11A6802210A431A60E5
:101060001A6801218A4301E00422FF321A60F0BDB0
:101070008451000072B60C4B0C491A680C4B1B686B
:10108000096862B6480104D532219142894149423A
:101090005B18FA20800043430648821A0648424300
:1010A000920D98187047C04618E000E004ED00E08B
:1010B000280500207FBB00005555010038B5041CF1
:1010C000FFF7D8FF051C002C0FD0FFF7D3FF074B0D
:1010D000401B984206D9013C002C06D0FA239B0005
:1010E000ED18F2E701F0FAF9EFE738BDE703000089
:1010F0001D4B8022D20510B51A60802212061A609C
:101100001A4B002018601A491A4B1B4A19602823F1
:1011100013601A4A1A4C13601A4A13601A4A136071
:101120001A4A13601A4A136009222260194C20607F
:10113000194C2160194C2360194C2360194C226012
:10114000194C20601948016019490B6019490B605E
:10115000194B1A60FFF7E4FDC8204000FFF7AEFF0F
:1011600000F0D8FB10BDC04600E100E00480034061
:10117000FFBF0000088003400C8003401480034040
:10118000008003401C800340248003402C800340E7
:101190003480034004900340089003400C900340C7
:1011A000149003400090034004A0034008A00340B3
:1011B0000CA0034014A0034000A00340F0B50B4F67
:1011C00002223B780A4E1A43D2000A4DB4186060DE
:1011D00028788824002800D0C82409040C43B4507F
:1011E00001225040534028703B70F0BDA005002004
:1011F00000F8FF1F20060020431E10B5042B0FD857
:1012000072B6084A99008858002807D044685B00E5
:101210008C50054A01889C5A611A995262B600E0C6
:10122000002010BD8C0500207C080020431E0020FB
:10123000042B09D872B6054A9B009B58002B02D09C
:1012400001305B68FAE762B67047C046E4050020EB
:1012500038B572B60123164A9A18013A1278110766
:101260001CD5144A5C01A5589900002D05D113190D
:1012700008305860104BA3500AE001242143C900F4
:101280008C58002C0AD15318083058600B4B8B50E7
:101290000B4B1A78013A1A7062B608E00133062B3C
:1012A000D9D162B6064B00221A7000F0A7FB38BDF8
:1012B000F052000000F8FF1F88004000C800400006
:1012C00016060020421E10B5042A30D802238000E2
:1012D0001843174BC0001B1872B6164CA05C0328AD
:1012E00009D802F0D9FC140216050833022011E0D7
:1012F000083304200EE01048920014580F4B002CC5
:1013000001D1115001E09858416099500EE003203E
:1013100000E00520A0540A1C08325A6088221807F1
:1013200000D5C822098809040A431A6062B610BDB4
:1013300000F8FF1F44050020E4050020F805002008
:10134000F7B5B6490C780E1CE4B262071FD5B44B52
:101350001B78002B18D0B34A1378DBB2002B05D0D2
:10136000013BDBB21370002B00D100BEAE4A1378F4
:10137000DBB2002B06D0013BDBB21370002B01D196
:1013800000F05CFE00F0FCFBA44D04232B7008254C
:10139000221C2A4000D154E2A44BA54C1B78DBB29E
:1013A0001E099A08002E00D0DDE1D50065192F68CE
:1013B0006A68B806000F01380C2800D9D0E102F0A5
:1013C00075FC93019301CF01CF01CF01CF01CF0174
:1013D000CF01AC01CF01CF01CF010D0095491368BA
:1013E000954F526895482960954D964900263B6077
:1013F0007A609BB201222E602661A66102708B4248
:1014000018D8D021C9008B4200D3E5E0812191405A
:101410008B4200D1C2E006D8802B00D1A9E0822BFC
:1014200000D1ABE0F5E0884A934200D1C5E0A022AC
:10143000D20017E085498B4200D152E10DD88821B6
:1014400009018B4200D18EE090221201934200D01C
:10145000DFE0BA78724B1A7009E07D4A934200D1FE
:10146000CFE07C4A0026934200D115E1D1E0A319D8
:10147000196A090603D5586A083800F0BFFA083619
:10148000A02EF4D100252E1C734AA858002805D0A0
:101490004368019300F0B2FA0198F7E76E496F4B89
:1014A0006F4A4851E850A858002805D04368019376
:1014B00000F0A4FA0198F7E76A4B6B4AE850730012
:1014C000D0526749694B4851F05C0238032807D86D
:1014D00002F0E2FB02040204002200E001229A551D
:1014E00001360435052ECFD1614A00231370012542
:1014F000161C604BEA18604B9200EB18013B1B78FE
:101500001370190720D500F05BFA6B01002805D095
:10151000E21808305060594AE25003E0E050337856
:101520000133337000F04CFA0122AB001343DB00AF
:10153000002805D0E218083050603E4AE25003E02F
:10154000E050337801333370AB0002221A43D200EB
:101550000021A1500322134393400135E150062D91
:10156000C7D10E1C98E02E4B454C1B78161C2370DF
:1015700093E0434C2670667002268EE0BB88052BF4
:1015800047D83F4C3F4D9B00267066705B191B7817
:101590000226334200D180E022707EE0BA887F23A9
:1015A0001340052B35DC7E88002E32D135499B0057
:1015B0005B181A7802218A4329E0BA887F231340F6
:1015C000052B26DC7E88002E23D12E4A9B009B18FB
:1015D0001A7802210A431AE07A88B9882A4B5C6893
:1015E000002C16D01888904209D15888884206D11C
:1015F000120A032A01D126784FE01E894DE00C33F0
:10160000EDE7224B1A68224B1A60BA78214B1A7008
:1016100042E01C4B0F221A7063E0C0468020074056
:101620001F060020A10500205C0600209020074036
:1016300000F8FF1FC80040000C0600202006002014
:101640002C0500208106000002030000212000007C
:1016500021220000212300008C05002030050020FD
:10166000E4050020F80500207C0800204405002047
:101670001606002030C80110F0520000880040001B
:1016800017060020C0200740F8520000280500205F
:10169000D00800206C060020341CFB889E4200D934
:1016A0001E1C371E402F00D94027201C391CFFF775
:1016B00085FDE419F61B03D1351C402F04D010E042
:1016C0004025B54200D9351C201C291CFFF776FDAA
:1016D0006419761B01D1402D03D1754D754B2C60DB
:1016E0001E800122744B3AE0744B1988744B994266
:1016F00010D10023D05C7349C8540133072BF9D1B2
:101700000B68862B02D1704B0F221A700020011C2F
:10171000FFF754FD6D4B2B6022E0654F3D68002DB7
:1017200013D064490E88341E402C00D94024281C54
:10173000211CFFF743FD361B5E4AB6B21680002E11
:1017400001D1402C00D12E193E605C4BA02219889B
:10175000D200914204D100225A709A785C4B1A70E0
:101760000122554B61E0D200A4186068013E0838A0
:10177000F6B22B4036D000F041F95649B00042583D
:10178000554B002A1BD055684550111C985D0831F7
:10179000616003280BD802F07FFA020406080321D7
:1017A00004E0022102E0052100E00421995588238C
:1017B000270700D5C8231288120413433CE0985D24
:1017C000032808D802F068FA39390204002200E040
:1017D00001229A5531E02C40624262410324A41A4E
:1017E0009C552AE062880280002A20D03B4D43802D
:1017F0004360B3005F593A49002F01D1585101E0CD
:10180000CD586860C850374B7600F15A5218F252E2
:1018100000F0D6F8002804D00830606021070AD50F
:1018200007E0314B20601A7801321A7005E02C4233
:1018300001D0264B00E02D4B23602D4A0823137066
:101840007FE5012004421ED01B4902230B70294B67
:10185000264C1A70284B294D1C609C60284C1A613C
:10186000DC609A615D60274B0D241C70264CFF23C1
:101870002370174C33702270244A1370244B9F221C
:101880001A70087013E063B2002B04DA1D4B0D22AE
:101890001A708023337002231C4204D01A4A117834
:1018A000C9B21170337010231C4200D03370F7BDE1
:1018B0002C05002014060020942007400C06002070
:1018C00021200000C8080020A1050020C800400019
:1018D00098200740E4050020440500208C050020E6
:1018E000300500207C0800201606002088004000FB
:1018F00080200740A005002000F8FF1F4C050020B5
:10190000A4050020C0200740882007408C20074005
:101910008420074010B501F0D9FE00221A4B0021A7
:10192000D150981808324160A82AF7D1174A802070
:101930001468C00220431060180A154AC0B2107023
:10194000180C144AC0B21070134A1B0E1370134ABD
:10195000FF231370124A13481370134A13700122A5
:1019600002701248017012490A70124A11689943B4
:101970000B1C70210B4313600F4B802252041A6022
:101980000E4B10221A7010BD00F8FF1F3480044067
:101990009C200740B0200740B4200740802007402B
:1019A000882007409420074010200740002107406E
:1019B0008420074018E400E000E100E0082107402F
:1019C00038B572B60B4C2568281C02F003FA1D28A6
:1019D00002D962B600200CE080231B06C3409D4361
:1019E000256062B648235843034B18180023036050
:1019F000436038BDF802002000FAFF1F10B5041C38
:101A00000E484821201A02F05BF91D2815D80C4B0E
:101A10001B78002B07D00B4B1B78002B03D0201C0E
:101A2000FFF716FC09E072B68022074B1206C2408F
:101A3000101C1A681043186062B610BD00FAFF1F30
:101A4000160600201F060020F802002038B50B4CB7
:101A5000051C21783C2908D1094B1B68002B04D0B8
:101A60000848002298470023237023783B2B03D893
:101A70005A1C2270034AD55438BDC046870800203E
:101A80004C0600208B080020F8B51F4D1F4C012389
:101A90002B702368061C002B1DD11D4F1D4B1B787E
:101AA000002B2FD00420FFF7C1FB052804D9013FEC
:101AB000194B002F06D108E0FFF782FF20600028B5
:101AC000F5D008E01A78002A02D001221A7019E035
:101AD00000F004FDE2E7104B002221681A704A88EA
:101AE000531C92008A1896600F2B01D84B8007E098
:101AF00040230B800420FFF7E5FBFFF761FF206028
:101B000000232B70F8BDC0463C0600204406002090
:101B1000E14200001F0600204806002038B5041CE2
:101B20000D1C032D0ED92078637800021B04184386
:101B300004231843A378033D1B061843FFF7A4FFB3
:101B40000334EEE7032D09D12078637800021B04EB
:101B5000184307231843A3781B060DE0022D06D176
:101B60002078637800021B041843062304E0012D4B
:101B700005D12078052300021843FFF785FF38BD03
:101B800010B50A4B1B78002B0ED1094C2168002997
:101B90000AD04B88002B07D09B000B800420FFF756
:101BA00091FBFFF70DFF206010BDC0463C060020F2
:101BB00044060020F8B5834C071C2368251C002B25
:101BC00012D1814B1B78002B00D1E2E00520FFF7FA
:101BD00013FB2060002800D1DBE00688002E03D133
:101BE000FFF70CFF2660D4E0286843889A0892002B
:101BF0008218946802880433934201D2438005E03E
:101C0000FFF7FCFE0520FFF7F7FA28600F23251CDD
:101C10001D40200A061C2A1C1E40083A0136062ACE
:101C200000D980E0002F02D0B74200D0B1E0220BF3
:101C30001340082D0AD1082B00D0AAE0634B0022E4
:101C40001A70634B1B68934232D163E0092D1AD19D
:101C5000092B00D09DE0220E5C4B210C002A09D0FC
:101C6000012018705B4B1B68002B53D0F0B2C9B237
:101C7000D2B206E01A70564B1B68002B4AD0F0B265
:101C8000C9B2984746E00A2D07D10A2B00D080E060
:101C90004E4B02221A70504B07E00B2D0DD10B2B2F
:101CA00077D14A4B03221A704C4B1B68002B31D062
:101CB000210CF0B2C9B2220EE3E70C2D06D10C2B99
:101CC00067D1424B04221A70454B07E00D2D0DD110
:101CD0000D2B5ED13D4B05221A70424B1B68002B29
:101CE00018D0210CF0B2C9B2984713E00E2D50D194
:101CF0000E2B4ED1354B06221A703B4B1B68002B26
:101D000008D0FE21620C890111406202520EF0B22D
:101D100011439847354B220C1E70354B240E1A7018
:101D2000344B1C704CE0042D08D1C0B2FFF78EFE7E
:101D3000200CC0B2FFF78AFE200E28E06B1F022B9A
:101D40001ED8C0B2FFF782FE052D08D0200CC0B20D
:101D5000FFF77CFE072D02D1200EFFF777FE264B02
:101D6000234A1978117000221A70184B07221A7032
:101D7000224B1B68002B23D02148012298471FE0EB
:101D80000F2D12D11C4B1B78002B04D0C0B2FFF7D3
:101D90005DFE002015E00D4B08221A70194B1B68E0
:101DA000002BB7D0C0B29847B4E7022DF1D1074B52
:101DB00009221A70144B1B68002B01D0200C984785
:101DC0000120F8BD500600201F06002086080020D4
:101DD0002806002058060020340600205406002063
:101DE0002C06002038060020300600208A0800203B
:101DF0008808002089080020870800204C06002061
:101E00008B080020400600202406002038B5114C25
:101E10002368002B0CD020684288531C8218157A46
:101E20000288934212D3FFF7E9FD002323600EE0FE
:101E3000094B1B78002B02D10120404208E0022010
:101E4000FFF7DAF920600028E5D1F5E74380281C88
:101E500038BDC046680600201F06002010B50D4C96
:101E60002368002B03D02368002B0ED103E00A4B1C
:101E70001B78002B02D10120404209E00220FFF72D
:101E8000BBF920600028EED1F5E75A889B18187A34
:101E900010BDC046680600201F060020054B58886C
:101EA000054B1B68002B03D01A885B88D31AC01817
:101EB0007047C0467C0800206806002010B50A4B19
:101EC0001B78002B0FD0094C2068002803D0FFF7A7
:101ED00095FD002323600220FFF78EF9002802D031
:101EE000FFF78CFDF7E710BD1F06002068060020F5
:101EF000F7B5304D0123071C0C1C2B70002C56D05D
:101F00002D4E3068002827D12C4A01922C4B1B788B
:101F1000DBB2002B03D12B700120404249E00320AB
:101F2000FFF784F9072808D801232B70FFF748FD35
:101F3000214B186000280FD128700198214B0138DF
:101F40000190002802D01A78002A02D001221A70CB
:101F5000E2E700F0C3FAD9E71A4B002231681A70A1
:101F60004B884020C01A0094844200D90090181C6D
:101F7000009A08309B1808184B800190A41A00237F
:101F80000098834204D0F85C019AD0540133F7E7FB
:101F9000FF184B883F2B06D940230B800320FFF707
:101FA00091F900233360084B05221A70A6E72C70C4
:101FB000201CFEBD5D0600206006002009750000A3
:101FC0001F060020640600205C06002007B56B4653
:101FD000D8710733181C0121FFF78AFF0EBDFFFFE0
:101FE000F8B5124B1B78002B1ED0114F114B3C68DB
:101FF00001261E70104D002C09D000262E7063881B
:1020000003202380211CFFF75DF93E6009E0FFF704
:10201000D7FC011E04D003202C70FFF753F900E019
:102020002E70044A00231370F8BDC0461F0600201E
:10203000600600205D0600205C06002038B50E4BCF
:102040001D78EDB2002D15D10C4C2168002906D069
:102050004B8803200B80FFF735F925600AE0FFF776
:10206000AFFC011E03D00320FFF72CF902E0044B64
:1020700001221A7038BDC0465D06002060060020AF
:102080005C06002010B5041C01F0FCFD201C10BDF6
:10209000214B70B518681E1C2049214A002809D020
:1020A000127809680A71421E511D01D10322524261
:1020B0001A6030E00B6812781A4D1A702B68002BEA
:1020C00023D0194B00211C68201C01F065FE00285C
:1020D00016D1201C154901F069FE002810D11449C1
:1020E000201C02F091F8FC21890502F0B7F901F0FB
:1020F0008FFE021E272A03D90E480F4901F0AAFDC0
:102100002B68336000232B6005E00A4801F0BAFD1C
:102110000A4BFF221A7070BD900600208406002032
:102120008C0600208806002094060020ABAA2A4DC9
:102130000000C0417006002091200000FC02002039
:10214000F8B5051C0C1C1A2874D8002A08D0101CDD
:102150004843FA21890001F0B3FD4600013601E051
:1021600003267642201C02F00FFB011C324801F0CE
:1021700067FE0C236B43314A041CD3185F6872B6A8
:102180002F4B19788D4215D12E4D296801F0F4FDA1
:102190002D4B002806D0186801220240013A9619FA
:1021A0001E6046E0294A1968166001220A402C6028
:1021B0001A603EE0264B1A2903D826491868097888
:1021C00001701F490D700C214D4351595519081CC0
:1021D000083018601F4A287A1070087272B61B689F
:1021E0001278197B0A431A7362B6A2235B003B6024
:1021F000154B201C1E60134B00211C6001F0CCFD10
:10220000002816D1201C144901F0D0FD002810D15F
:102210001249201C01F0F8FFFC21890502F01EF98B
:1022200001F0F6FD021E272A03D90D480D4901F0E1
:1022300011FD62B6F8BDC0460024F4488451000088
:10224000FC02002094060020900600208806002052
:10225000840600208C060020ABAA2A4D0000C04155
:10226000700600209120000010B51A280FD872B611
:10227000074C2378834209D1064801F003FD064B41
:10228000064A1B6812781A70FF23237062B610BDCD
:10229000FC02002070060020840600208C0600202E
:1022A00008B505480023037004498023044A43739A
:1022B00002F0BAFA08BDC046700600208520000072
:1022C0007002002010B5041C006802F0EBFA201C1C
:1022D00010BD38B5041C0D1C0068013102F0B2FBC2
:1022E000002801D021C4012038BD436810B5041C6A
:1022F0008B4208D2FFF7EDFF002805D0A368002B22
:1023000001D122681370012010BDF8B5041C0F1C08
:10231000151E05D10368002B00D01A7000230DE0B4
:10232000111CFFF7E2FF061C2068002E08D10028D0
:1023300002D002F0B7FA266000236360A36003E0D6
:10234000A560391C02F0BEFB201CF8BD38B5002387
:10235000041C0D1C0360436083600373994207D023
:10236000081C02F0B7FB291C021C201CFFF7CDFF44
:10237000201C38BD38B5051C00680C1C00280CD08A
:102380006A688B689A4206D3096802F09BFBA268D0
:102390000023AA600AE002F085FA236862682B60D5
:1023A000A3686A60AB60002323606360A36038BDEC
:1023B00010B5041E8C4201D0FFF7DCFF201C10BDBD
:1023C00007B5002201AB19705A70191C0122FFF7E2
:1023D0009CFF0EBD10B50023041C036043608360A6
:1023E0000373FFF7EDFF201C10BDF7B50368171C42
:1023F0000022041C0D1C86680092994206D39A198B
:10240000914203D2CB1A019301230093002F1AD0DB
:10241000BE19201C311CFFF768FF002813D0009B59
:10242000A0682168002B09D0019A081889183A1C65
:1024300002F042FA22680023935503E00818291C91
:1024400002F040FBA660201CFEBD08B50B1C9A687C
:102450000968FFF7CAFF08BD13B5002201AB041CD1
:1024600019705A70191C0122FFF7BFFF201C16BDFE
:1024700008B5FEF701F9FEF7FDFA00F02FF8FAE7CC
:1024800008B5FFF70BFD08BD08B5FFF7BFFC08BD99
:1024900008B5FFF7E3FC08BD08B5FFF7A1FD08BDCF
:1024A00008B5FFF70BFD08BD08B5081CFFF78EFD4A
:1024B00008BD08B5081C111CFFF71AFD08BD7047C0
:1024C000044B00221A711A73FA21034A8900996099
:1024D0001A60704798060020D052000010B5104CCA
:1024E0002378002B1BD101232370FFF7D7FC002892
:1024F00001D0FFF7E4FF00F0E5FA002801D001F079
:10250000AFF900F02FFD002801D001F049FA00F0EA
:10251000F5FF002801D001F0E3FA0023237010BD7D
:10252000A8060020024B1A6801321A607047C046A4
:102530002805002010B50B4C23685A0301D5FEF77F
:10254000FFFE23685A0501D500F02EFB23681A050B
:1025500001D500F079FD2368DA04ECD501F040F8EC
:10256000E9E7C0463480044008B5FFF7E3FFFFFF0A
:10257000014B00221A607047008104407047FFFF42
:10258000024A136818181060181C704700030020D6
:10259000EFF31380002821D1EFF31082002A1FD11E
:1025A000EFF30583002B0FD0101C0F2B0ED91A1C34
:1025B000103A92080B4903209200034052188340BE
:1025C0001068D840C0B201E080204000EFF31182D3
:1025D000002A05D0824203D2101C01E001204042B3
:1025E0007047C04600E400E0F8B5061C0D1C171C3F
:1025F0000024301C391C01F0A7FB092901D8303117
:1026000000E03731C9B22955301C391C01F058FBA4
:10261000061E01D00134ECE72B1958702B1C5A1BF5
:10262000A24206DA1A78295D19702A550133013C55
:10263000F5E7281CF8BDFFFF264B80221968D20061
:102640000A431A60244A00231370244A1370244A50
:102650001370244A1370244A1370244B1B78032BE5
:1026600009D0152B04D0002B08D1214A214B04E0BE
:102670001F4A214B01E0214A214B1A60214B1B7854
:10268000042B0BD0052B05D0012B0BD1D1229200AE
:102690001D4B06E0D12292001C4B02E091221C4B04
:1026A00092001A601B4BC204D20E1A70C0B20022F4
:1026B00058709A702C22DA70174BFF2219689143D8
:1026C0000A1C40210A431A60144B802252011A60EE
:1026D0007047C0463480044035070020B106002012
:1026E0003C07002036070020B0060020F20600203C
:1026F0001303000040A0044018C00440130200006F
:10270000049004400403002044A004401CC0044082
:102710000890044000A006400CE400E000E100E066
:1027200010B5174B132299789143032202400A43B4
:10273000410701D510210A439A700F221049024027
:10274000042A03D18A79402422438A715A791021BC
:102750008A43084200D00A435A7199791022914362
:10276000840600D51143064A9971C10506D55378F0
:1027700011782020DBB201431170537010BDC046A8
:1027800000A0064008B5124B1B685A051ED5114B18
:102790001B78DBB2002B02D0FFF7A0FEF7E70E4A52
:1027A0008021490111600D4A0D49D3700422FF3286
:1027B0000A600C490A600C4A13700C4A13700C4BE7
:1027C0001B68002B02D00B4A12781A7108BDC04654
:1027D00034800440B006002080E100E000A0064004
:1027E00040A0044044A0044035070020B10600206A
:1027F000AC060020F306002038B5041C0B4B1D78F6
:10280000EDB2002DFAD1201C0121FEF7EFFB291CAF
:10281000201CFEF7B9FB0C225443054B054AE15836
:102820001C191160044B227A1A7038BDB0060020C2
:1028300084510000380700203407002030B50029FB
:1028400001D080231843224A1378141C98423ED0AA
:10285000204A1268550539D57F221340042B0FD02A
:1028600004D8012B0FD100221B4B0BE0052B04D009
:10287000182B08D10022194B04E00022184B01E06C
:10288000184B00221A604423002900D060237F22C5
:102890000240042A15D006D8012A17D1C02292007E
:1028A00013430D4A11E0052A06D0182A0ED18022C2
:1028B000D2001343094A08E0C02292001343084A99
:1028C00003E0802292001343064A1360207030BD5B
:1028D000040300203480044044A0044050D004404D
:1028E0001CC004400890044010B51A4A137898425E
:1028F0002ED0194909684C0529D5032B0FD004D8CF
:10290000002B0FD115490B600CE0152B04D0192BAF
:1029100008D10021124B04E00021124B01E0124BC0
:102920000021196003280FD004D800280FD10F49C7
:102930000A4B0BE0152804D0192808D10C49084B84
:1029400004E00A49074B01E00A49074B196010707F
:1029500010BDC046F20600203480044040A0044070
:1029600054D0044018C004400490044013030000F5
:10297000130400001302000038B50E4B1A68002340
:10298000510514D50C4C1A2810D80C2343430B4A7C
:102990000B4D9958D3181B7A216001212B70FEF73B
:1029A00025FB23682A781A72012300E02360181C93
:1029B00038BDC04634800440AC060020845100007D
:1029C000F306002000207047F8B5214B071C1B6858
:1029D0005A053BD51F4B1B68002B02D01E4A1278AC
:1029E0001A711E4E002334783F220134A2425B410B
:1029F0005B421C401A4D2B78A3421CD1FFF7C8FD47
:102A0000402813DC174A13795BB2002BF2DA2B78DB
:102A1000002101333F209842494149420B4012496D
:102A2000C95CDBB2C9B2D1712B70E3E7FF28E1DDED
:102A3000FFF754FDDEE70C4BFFB21F550B4B012295
:102A40001A70084BE4B2AC223470DA70F8BDC0469C
:102A50003480044038070020340700203C07002061
:102A60003607002000A00640B2060020B006002075
:102A700038B5041C4518AC4204D02078FFF7A4FFF9
:102A80000134F8E738BDFFFF08B5044B1B78002B75
:102A900002D0FFF723FDF8E708BDC046B0060020CE
:102AA000064B074A1B781078DBB2C0B2834201D3D1
:102AB0003F3000E00138C01A7047C0463C07002094
:102AC00036070020054B1878054BC0B21B78DBB2E7
:102AD000984200D24030C01A7047C04635070020E7
:102AE000B106002010B5124B12491A780B78D2B2F9
:102AF000DBB29A4219D001333F2400209C4240416E
:102B0000404203400C48DCB2C05C0C700B49C0B2C0
:102B1000096800290BD09A4200D24032D31A1A2BEE
:102B200005DC074B1B780B7201E00120404210BD11
:102B300035070020B1060020F4060020AC06002076
:102B4000F30600200A4B1A780A4B1B78DBB29A4234
:102B50000AD0013300223F21994252415242134090
:102B6000054AD05CC0B201E0012040427047C04637
:102B700035070020B1060020F4060020064B1A7825
:102B8000064BD2B21A70064B1B68002B02D0054AC6
:102B900012781A727047C046B1060020350700202F
:102BA000AC060020F306002030B5254A13799906BB
:102BB00012D52449D4790B78002001333F259D425A
:102BC0004041404203402048E4B20078834203D0B1
:102BD0001E48C454DBB20B70D178194CC9B24BB249
:102BE000002B1ADA23795BB2002B16DA184B19483E
:102BF0001D780378DBB29D4202D16C23E3700CE0B8
:102C0000013300243F259D42644164422340124C1D
:102C1000E45CDBB2E4B2D4710370402319420ED0FD
:102C2000117919420BD00D4B002119700C4B1B6808
:102C30008B4202D00B49097819722C23D37030BD16
:102C400000A0064035070020B1060020F406002051
:102C50003C07002036070020B2060020B006002006
:102C60003807002034070020164B80221968120113
:102C70000A431A60144A00231370144A144913704B
:102C8000144A1370144A1370144A1370144A1160D2
:102C9000144AD12189001160134AC104C90EC0B27F
:102CA0001170507093702C23D370104B104A196818
:102CB0000A408021C9010A431A600E4B802292010A
:102CC0001A60704734800440B00700204507002098
:102CD00013030000B8070020B107002044070020BC
:102CE0000CB0044010B0044000B006400CE400E01A
:102CF000FF00FFFF00E100E010B5174B13229978A9
:102D00009143032202400A43410701D510210A439F
:102D10009A700F2210490240042A03D18A79402474
:102D200022438A715A7910218A43084200D00A430B
:102D30005A71997910229143840600D51143064AAD
:102D40009971C10506D5537811782020DBB2014373
:102D50001170537010BDC04600B0064008B5124B4C
:102D60001B681A051ED5114B1B78DBB2002B02D055
:102D7000FFF7B4FBF7E70E4A8021890111600D4A85
:102D80000D49D3700422FF320A600C490A600C4AD4
:102D900013700C4A13700C4B1B68002B02D00B4AAB
:102DA00012781A7108BDC0463480044044070020E0
:102DB00080E100E000B006400CB0044010B00440D8
:102DC000B007002045070020400700206E070020C4
:102DD00038B5041C0B4B1D78EDB2002DFAD1201C28
:102DE0000121FEF703F9291C201CFEF7CDF80C2267
:102DF0005443054B054AE1581C191160044B227AD3
:102E00001A7038BD4407002084510000B407002028
:102E1000AF0700207047704738B50E4B1A68002383
:102E2000110514D50C4C1A2810D80C2343430B4A17
:102E30000B4D9958D3181B7A216001212B70FEF796
:102E4000D5F823682A781A72012300E02360181C41
:102E500038BDC04634800440400700208451000043
:102E60006E07002000207047F8B5214B071C1B6837
:102E70001A053BD51F4B1B68002B02D01E4A127847
:102E80001A711E4E0023347827220134A2425B417E
:102E90005B421C401A4D2B78A3421CD1FFF778FBF4
:102EA000402813DC174A13795BB2002BF2DA2B7837
:102EB0000021013327209842494149420B401249E1
:102EC000C95CDBB2C9B2D1712B70E3E7FF28E1DD49
:102ED000FFF704FBDEE70C4BFFB21F550B4B012243
:102EE0001A70084BE4B2AC223470DA70F8BDC046F8
:102EF00034800440B4070020AF070020B80700204A
:102F0000B107002000B0064046070020440700201B
:102F100038B5041C4518AC4204D02078FFF7A4FF54
:102F20000134F8E738BDFFFF08B5044B1B78002BD0
:102F300002D0FFF7D3FAF8E708BDC04644070020E7
:102F4000064B074A1B781078DBB2C0B2834201D32C
:102F5000273000E00138C01A7047C046B80700208B
:102F6000B1070020054B1878054BC0B21B78DBB2C7
:102F7000984200D24030C01A7047C046B0070020C7
:102F80004507002010B5124B12491A780B78D2B2BF
:102F9000DBB29A4219D001333F2400209C424041C9
:102FA000404203400C48DCB2C05C0C700B49C0B21C
:102FB000096800290BD09A4200D24032D31A1A2B4A
:102FC00005DC074B1B780B7201E00120404210BD6D
:102FD000B0070020450700206F07002040070020B1
:102FE0006E0700200A4B1A780A4B1B78DBB29A4214
:102FF0000AD0013300223F219942524152421340EC
:10300000054AD05CC0B201E0012040427047C04692
:10301000B0070020450700206F070020064B1A78F4
:10302000064BD2B21A70064B1B68002B02D0054A21
:1030300012781A727047C04645070020B00700207A
:10304000400700206E07002030B5254A1379990605
:1030500012D52449D4790B78002001333F259D42B5
:103060004041404203402048E4B20078834203D00C
:103070001E48C454DBB20B70D178194CC9B24BB2A4
:10308000002B1ADA23795BB2002B16DA184B194899
:103090001D780378DBB29D4202D16C23E3700CE013
:1030A0000133002427259D42644164422340124C91
:1030B000E45CDBB2E4B2D4710370402319420ED059
:1030C000117919420BD00D4B002119700C4B1B6864
:1030D0008B4202D00B49097819722C23D37030BD72
:1030E00000B00640B0070020450700206F07002011
:1030F000B8070020B1070020460700204407002041
:10310000B4070020AF070020204B8022196852012D
:103110000A431A601E4A002313701E4A13701E4A87
:1031200013701E4A13701E4A13701E4B1B78062B19
:1031300004D0072B05D11C4A1C4B01E01A4A1C4B3A
:103140001A601C4B1B78082B05D0142B07D1D122F9
:103150009200194B02E0D122184B92001A60184BD2
:10316000C204D20E1A70C0B2002258709A702C227B
:10317000DA70144B144A19680A408021C9030A43C3
:103180001A60124B8022D2011A60704734800440CA
:103190002C080020C1070020340800202D08002042
:1031A000C0070020050300201303000008C00440EE
:1031B00010C004400603002014C004400CC00440AA
:1031C00000C006400CE400E0FFFF00FF00E100E06B
:1031D00010B5174B132299789143032202400A43FA
:1031E000410701D510210A439A700F22104902406D
:1031F000042A03D18A79402422438A715A79102102
:103200008A43084200D00A435A71997910229143A7
:10321000840600D51143064A9971C10506D5537835
:1032200011782020DBB201431170537010BDC046ED
:1032300000C0064008B5124B1B68DA041ED5114BBE
:103240001B78DBB2002B02D0FFF748F9F7E70E4AF4
:103250008021C90111600D4A0D49D3700422FF324B
:103260000A600C490A600C4A13700C4A13700C4B2C
:103270001B68002B02D00B4A12781A7108BDC04699
:1032800034800440C007002080E100E000C0064018
:1032900008C004400CC004402C080020C1070020D6
:1032A000BC070020EA07002038B5041C0B4B1D7832
:1032B000EDB2002DFAD1201C0121FDF797FE291C4B
:1032C000201CFDF761FE0C225443054B054AE158D2
:1032D0001C191160044B227A1A7038BDC0070020F7
:1032E00084510000300800202B08002030B5002950
:1032F00001D080231843154A1378141C984224D017
:10330000134A1268D5041FD57F221340082B04D01E
:10331000142B05D100220F4B01E00F4B00221A6045
:103320004423002900D060237F220240082A06D0CF
:10333000142A09D1C02292001343064A03E0C02296
:1033400092001343044A1360207030BD060300202E
:103350003480044014C004400CC0044010B50F4A2F
:103360001378984218D00E490968CC0413D5062B5F
:1033700004D0072B05D100210A4B01E00A4B0021A4
:103380001960062804D0072805D10849054B01E03B
:103390000649054B1960107010BDC046050300209A
:1033A0003480044008C0044010C0044013030000EF
:1033B00038B50E4B1A680023D10414D50C4C1A28CA
:1033C00010D80C2343430B4A0B4D9958D3181B7A42
:1033D000216001212B70FDF709FE23682A781A72FB
:1033E000012300E02360181C38BDC046348004402F
:1033F000BC07002084510000EA070020002070472D
:10340000F8B5214B071C1B68DA043BD51F4B1B6822
:10341000002B02D01E4A12781A711E4E00233478F7
:1034200027220134A2425B415B421C401A4D2B789B
:10343000A3421CD1FFF7ACF8402813DC174A1379DC
:103440005BB2002BF2DA2B7800210133272098425F
:10345000494149420B401249C95CDBB2C9B2D17142
:103460002B70E3E7FF28E1DDFFF738F8DEE70C4BD0
:10347000FFB21F550B4B01221A70084BE4B2AC226D
:103480003470DA70F8BDC046348004403008002043
:103490002B080020340800202D08002000C0064022
:1034A000C2070020C007002038B5041C4518AC42F4
:1034B00004D02078FFF7A4FF0134F8E738BDFFFF00
:1034C00008B5044B1B78002B02D0FFF707F8F8E78C
:1034D00008BDC046C0070020064B074A1B7810787D
:1034E000DBB2C0B2834201D3273000E00138C01AFA
:1034F0007047C046340800202D080020054B18787E
:10350000054BC0B21B78DBB2984200D24030C01AE3
:103510007047C0462C080020C107002010B5124B90
:1035200012491A780B78D2B2DBB29A4219D0013321
:103530003F2400209C424041404203400C48DCB202
:10354000C05C0C700B49C0B2096800290BD09A42CC
:1035500000D24032D31A1A2B05DC074B1B780B72B2
:1035600001E00120404210BD2C080020C1070020CE
:10357000EB070020BC070020EA0700200A4B1A785E
:103580000A4B1B78DBB29A420AD0013300223F215A
:103590009942524152421340054AD05CC0B201E008
:1035A000012040427047C0462C080020C10700207F
:1035B000EB070020064B1A78064BD2B21A70064B66
:1035C0001B68002B02D0054A12781A727047C04659
:1035D000C10700202C080020BC070020EA070020BB
:1035E00030B52E4A1379990624D52D49D4790B7814
:1035F000002001333F259D4240414042034029487D
:10360000E4B20078834203D02748C454D8B208708B
:103610002649086800280DD025490978C9B28B428F
:1036200001D35B1A01E05B1A4033272B02DD214BEB
:103630001B780371D178194CC9B24BB2002B1ADA3E
:1036400023795BB2002B16DA1B4B19481D780378DF
:10365000DBB29D4202D16C23E3700CE00133002405
:1036600027259D42644164422340144CE45CDBB254
:10367000E4B2D4710370402319420ED0117919427B
:103680000BD00F4B002119700E4B1B688B4202D0E0
:103690000D49097819722C23D37030BD00C0064043
:1036A0002C080020C1070020EB070020BC070020E9
:1036B0002D080020EA07002034080020C20700205F
:1036C000C0070020300800202B0800201FB572B66C
:1036D000154B70221A70154A41211170144A0F219E
:1036E000117080221A701A7852B2002AFBDA114B3C
:1036F000186862B6104B984201D80A23584301ACAF
:10370000211C0A22FEF770FF0023E15C0B4A00290E
:1037100005D058001018013341800A2BF5D1013330
:103720005B0013701FBDC04600000240070002404E
:1037300006000240080002407F969800E403002043
:1037400008B50368C9B21B68984708BD08B5036887
:10375000C9B21B68984708BD08B50368C9B21B68A1
:10376000984708BD08B50368C9B21B68984708BDEB
:1037700008B5044B4808C01800F0A2FAFEF75CFF39
:1037800008BDC046C0C62D0010B5064B4808C0187D
:10379000141C00F095FAFEF74FFF201CFEF7C0FF47
:1037A00010BDC046C0C62D0008B5FEF7EBFF08BD32
:1037B00008B5081CFFF720F808BD08B5081CFFF77E
:1037C00093F808BD08B5081C111CFFF737F808BDB1
:1037D00008B5081CFFF7D0F8431E9841C0B208BDD9
:1037E00008B5081CFFF7EEF8431E9841C0B208BDAB
:1037F00008B5FFF767F908BD08B5FFF7A3F908BDDD
:1038000008B5FFF76FF908BD08B5FFF73DF908BD2A
:1038100008B5FFF7B3F908BD08B5FFF741F908BDD2
:1038200008B5081CFFF7D0F8012008BD08B5081C32
:10383000FFF7CAF8012008BD10B5081C141C111CA4
:10384000FFF716F9201C10BD38B5081C0D1C01F03F
:1038500041F9041C211C281CFFF70AF9201C38BD63
:103860007047FFFF044B00221A711A73FA21034AB2
:10387000890099601A60704738080020585300008A
:1038800008B50368C9B21B68984708BD08B5036846
:10389000C9B21B68984708BD08B50368C9B21B6860
:1038A000984708BD08B50368C9B21B68984708BDAA
:1038B00008B5044B4808C01800F002FAFFF7D4F925
:1038C00008BDC04660E3160010B5064B4808C01896
:1038D000141C00F0F5F9FFF7C7F9201CFFF70CFAEC
:1038E00010BDC04660E3160008B5FFF737FA08BD03
:1038F00008B5081CFFF76CFA08BD08B5081CFFF7EF
:103900008AFA08BD08B5081C111CFFF783FA08BD28
:1039100008B5081CFFF780FA431E9841C0B208BDE5
:1039200008B5081CFFF79EFA431E9841C0B208BDB7
:1039300008B5FFF717FB08BD08B5FFF753FB08BD37
:1039400008B5FFF71FFB08BD08B5FFF7EDFA08BD86
:1039500008B5FFF763FB08BD08B5FFF7F1FA08BD2E
:1039600008B5081CFFF780FA012008BD08B5081C3F
:10397000FFF77AFA012008BD10B5081C141C111CB1
:10398000FFF7C6FA201C10BD38B5081C0D1C01F04D
:10399000A1F8041C211C281CFFF7BAFA201C38BD12
:1039A0007047FFFF044B00221A711A73FA21034A71
:1039B000890099601A60704748080020B8530000D9
:1039C00008B50368C9B21B68984708BD08B5036805
:1039D000C9B21B68984708BD08B50368C9B21B681F
:1039E000984708BD08B50368C9B21B68984708BD69
:1039F00008B5044B4808C01800F062F9FFF784FBD3
:103A000008BDC04660E3160010B5064B4808C01854
:103A1000141C00F055F9FFF777FB201CFFF7D8FBCB
:103A200010BDC04660E3160008B5FFF703FC08BDF3
:103A300008B5081CFFF738FC08BD08B5081CFFF7DF
:103A40008DFC08BD08B5081C111CFFF74FFC08BD14
:103A500008B5081CFFF7ACFC431E9841C0B208BD76
:103A600008B5081CFFF7CAFC431E9841C0B208BD48
:103A700008B5FFF743FD08BD08B5FFF77FFD08BD9A
:103A800008B5FFF74BFD08BD08B5FFF719FD08BDE8
:103A900008B5FFF78FFD08BD08B5FFF71DFD08BD90
:103AA00008B5081CFFF7ACFC012008BD08B5081CD0
:103AB000FFF7A6FC012008BD10B5081C141C111C42
:103AC000FFF7F2FC201C10BD38B5081C0D1C01F0DE
:103AD00001F8041C211C281CFFF7E6FC201C38BD43
:103AE0007047FFFF044B00221A711A73FA21034A30
:103AF000890099601A607047580800201854000027
:103B000008B50B4B1A68002A04D001221A60094B31
:103B10001B689847084B1B78002B08D0074B1A6886
:103B2000002A04D001221A60024B5B68984708BD46
:103B30000C7103406C0800206A0800201C710340CF
:103B4000064B8022196812040A431A60044B0022B3
:103B50001A60044B01221A707047C0463C80044032
:103B6000007003406A080020054B01221A60054BD3
:103B7000054A19680A401A60044B00221A707047FF
:103B8000007003403C800440FFFF7FFF6A08002074
:103B900070B544780E4D0F4E23015A199B190E4DE6
:103BA0000669A40042606651002483601C601160B5
:103BB00003221A60094B417B094A18680904024034
:103BC0000A431A60074B8022D2031A6070BDC046B8
:103BD00000710340087103406C08002014E400E009
:103BE000FFFF00FF00E100E0F8B50C4B061C1B785E
:103BF0000F1C002B01D1FFF7A3FF094D2C78002CDF
:103C000004D06B780020834207D10124301C7470EB
:103C1000391CFFF7BDFF01202855F8BD6A080020B8
:103C20006808002008B5836800221A608021074BCD
:103C3000C90319604178064B5A541A78002A04D1F6
:103C40005B78002B01D1FFF78FFF08BD80E100E01A
:103C50006808002070B50378041C0E1C151C002B8E
:103C600003D0FFF7DFFF002323702661201C291CEF
:103C7000FFF7BAFF002802D00123237000E0207074
:103C8000207870BD037810B5041C002B01D0FFF71D
:103C9000C9FF0023237010BD02B4714649084900D2
:103CA000095C49008E4402BC7047C04603B47146AB
:103CB000490840004900095A49008E4403BC704736
:103CC000002934D00123002210B488422CD30124CF
:103CD0002407A14204D2814202D209011B01F8E764
:103CE000E400A14204D2814202D249005B00F8E71D
:103CF000884201D3401A1A434C08A04202D3001B49
:103D00005C0822438C08A04202D3001B9C0822437B
:103D1000CC08A04202D3001BDC082243002803D0B9
:103D20001B0901D00909E3E7101C10BC70470028EB
:103D300001D00020C04307B4024802A140180290FD
:103D400003BDC046190000000029F0D003B5FFF7FD
:103D5000B9FF0EBC4243891A1847C0467047C04697
:103D60008446081C6146FFE71FB500F001FA0028F1
:103D700001D40021C8421FBD10B500F087F94042B0
:103D8000013010BD10B500F0F3F9002801DB002070
:103D900010BD012010BDC04610B500F0E9F90028A3
:103DA00001DD002010BD012010BDC04610B500F09F
:103DB00097F9002801DC002010BD012010BDC0468D
:103DC00010B500F08DF9002801DA002010BD0120A7
:103DD00010BDC0461C2101231B04984201D3000CD6
:103DE00010391B0A984201D3000A08391B0998426E
:103DF00001D30009043902A2105C40187047C04684
:103E000004030202010101010000000000000000A3
:103E10009E2110B5C905041CFFF7D2FF002803D16D
:103E2000201C00F091FC10BD9E21C905201C00F053
:103E300015FB00F089FC80231B06C018F3E7C04681
:103E4000F0B55F4656464D464446F0B4460245003E
:103E5000C00F85B00F1C760A2D0E804641D0FF2D75
:103E600026D08024240400212643F6007F3D894685
:103E70008B46F90F7C027800640A000E00918A4696
:103E80003CD0FF2834D080231B041C430023E400D3
:103E90007F380193009F4346019A7B4049469C46E8
:103EA00011430F2900D971E0764F89007F58BF4632
:103EB000002E3ED10822022391469B46D9E75A465E
:103EC000341CC24601920199022937D0032900D13E
:103ED000CFE0012900D0ABE053460B400022002682
:103EE00032E0002E19D10421012289469346C0E711
:103EF000221C531E9A4102320192CBE701270197FF
:103F0000002CC7D0201CFFF765FF431F9C40762381
:103F10005B420021181A0191BCE7301CFFF75AFFE1
:103F20007625431F9E406D4200232D1A99469B46DD
:103F30009FE70C23032199468B469AE7D446012339
:103F400067463B40FF2200267602D205700ADB0757
:103F50001043184305B03CBC90469946A246AB4678
:103F6000F0BD80260023F603FF22EDE700220026A5
:103F7000EAE78020C00306423BD0044239D1061C48
:103F800026437602760A009BFF22DDE7281A03907B
:103F900076016401A64239D3361B1A22012301207F
:103FA000311C5B007600002901DBB44201D8361BCE
:103FB0000343013A002AF3DC741EA641341C1C435F
:103FC000039A7F32002A27DD630704D00F232340A2
:103FD000042B00D00434270103D52B4B039A1C403B
:103FE0008032FE2A0BDD012361460B40FF220026B2
:103FF000AAE706437602760A4346FF22A4E7A40115
:1040000001236746660AD2B23B409DE7039F1B220D
:10401000013F03970023C2E77E23039F5B42DB1B24
:104020001B2B07DD012361460B40002200268BE796
:10403000D446C5E7221CDA40039B9E339C40231CD8
:104040005C1EA34113435A0704D00F221A40042ACE
:1040500000D004335F0105D5012361460B400122E6
:10406000002671E79E01624601231340760A002272
:104070006AE78026F60326437602760A5346FF2235
:1040800062E7C04670540000FFFFFFF74A02430298
:1040900070B55C0A550A43004A001B0EC60F120E8B
:1040A000C90FFF2B05D0FF2A08D0012093420BD067
:1040B00070BD0120002CFBD1FF2AF6D10120002D7C
:1040C000F6D101209342F3D1AC42F1D18E4205D01A
:1040D000002BEDD1201C441EA041E9E70020E7E7BA
:1040E0004A024302F0B55C0A550A43004A001B0E1F
:1040F000C60F120EC90FFF2B31D0FF2A34D0002B70
:1041000016D1604260418446002A14D0002820D194
:104110008E4217D1934215DC04DBAC4212D800204A
:10412000AC4212D2704270414042012318430CE06D
:10413000002AEDD194466F426F416046002805D1B8
:10414000002FE5D0704201231843F0BD0020002F5E
:10415000FBD148424841404201231843F5E7002C77
:10416000CBD002204042F0E7002DC8D0F9E7C0468E
:104170004A024302F0B55C0A550A43004A001B0E8E
:10418000C60F120EC90FFF2B27D0FF2A29D0002BF4
:1041900010D0002A15D194466F426F416046002826
:1041A00015D00020002F04D148424841404201234D
:1041B0001843F0BD604260418446002AECD00028DC
:1041C000F2D18E4211D0704201231843F1E7002F43
:1041D000F7D0704201231843EBE70220002CE8D10E
:1041E000D3E70220002DE4D1D1E79342EBDC04DBDE
:1041F000AC42E8D80020AC42DBD270427041404271
:1042000001231843D5E7C046F0B55F4656464D46F4
:104210004446F0B44402460083B00F1C640A360ED4
:10422000C50F002E41D0FF2E22D080231B0400207A
:104230001C43E4007F3E82468046391C4B007F02CF
:10424000C90F7F0A1B0E8B463BD0FF2B34D0802238
:1042500012041743FF007F3B00215A466A40019237
:1042600052460A430F2A63D87A48920082589746EA
:10427000002C3FD10822022392469846DDE70195A3
:10428000404602282AD1019A01251540FF23002427
:104290006402DB05600AED071843284303B03CBC09
:1042A00090469946A246AB46F0BD002C27D104208B
:1042B000012282469046C0E7391C4A1E91410231D4
:1042C000CBE70121002FC8D0381CFFF783FD431F27
:1042D0009F4076235B421B1A0021BEE7032800D1D2
:1042E000AEE001284FD1019842461040C5B20023EC
:1042F0000024CDE70C2303209A4680469DE7201C2E
:10430000FFF768FD7626431F9C4076420023361A4D
:104310009A46984691E780240025E403FF23B7E7F7
:104320005B463C1C01938846AAE73C1C8846A7E7ED
:10433000250C24043A0C240C3F04F6183F0C211CD5
:10434000231C794353436F435543FB180A0C9B18B6
:10435000B1469F4202D980225202AD1809041A04C4
:10436000090C521894011B0C611E8C41920EED1821
:104370001443AD012C43230105D50122630801201C
:10438000144081441C434B467F33002B2DDD6007D6
:1043900004D00F222240042A00D00434220103D585
:1043A0002D4B1C404B468033FE2B17DD019B012516
:1043B0001D400024FF236BE78020C003044208D087
:1043C000074206D1041C3C436402640A5D46FF2395
:1043D0005EE704436402640AFF2359E70198A401DD
:1043E0000125640ADBB2054052E77E235B424A4660
:1043F0009B1A1B2B05DD019B01251D40002400237A
:1044000046E7221CDA404B469E339C40231C5C1E30
:10441000A3411343580704D00F221A40042A00D0A6
:1044200004335A0105D5019B01251D4000240123B9
:104430002EE701989C010125640A0540002327E727
:104440008027FF03019B3C43640201251D40640A51
:10445000FF231DE7B0540000FFFFFFF7F8B5C20FC0
:10446000430244004D024800240E161C9B09000E16
:10447000C90FAD09FF2800D183E0012779408A42A6
:104480005CD0221A002A00DC8EE000281ED1002D0C
:1044900000D07AE0580704D00F221A40042A00D036
:1044A00004338021C90401221940324000293AD046
:1044B0000134FF2C00D183E09B015B0A5B02E4B274
:1044C000E405580AD20720431043F8BDFF2CE1D081
:1044D0008021C9040D431B2A00DD31E1291C202065
:1044E000D140821A95406A1E95410D435B1B5801CD
:1044F000D0D59B019F09381CFFF76CFC421F9740E9
:1045000094425FDC141B1F231B1B3A1C9F40611C41
:104510003B1CCA405F1EBB4113430024BAE7131E75
:10452000B8D100230022DB08FF2C04D1002B47D098
:104530008020C00303435B025B0ABFE7211A002906
:1045400044DD002827D0FF2CA4D08020C0040543E0
:104550001B2900DDF2E0281C2027C840791A8D4075
:10456000691E8D4105435B19590100D492E701345E
:10457000FF2C59D0734901221A400B405B081343AA
:1045800088E7002D00D07AE777E7013A002AADD01E
:10459000FF2CA0D17EE7002D00D17BE70139002957
:1045A000E1D0FF2CD4D175E7002A1BD1621CD2B216
:1045B000012A4BDD5F1B7A0123D5EF1A0E1C9AE707
:1045C00000237BE75F4BA41A3B4063E7002946D1F9
:1045D000611CC8B2012829DDFF2924D0EB185B0833
:1045E0000C1C57E7002C13D0FF2818D08024E404BB
:1045F000524223431B2A4DDD0123EB1A041C0E1CDF
:1046000075E7002F00D076E70023002200248AE718
:10461000002B3BD0D243002AEFD0FF28EAD12B1C3D
:10462000FF240E1C36E7FF2400237CE7002C5CD11E
:10463000002B00D180E0002D00D12BE75B19580141
:1046400000D427E73F4A0124134023E7002C15D16B
:10465000002B40D1002D63D02B1C0E1C1AE7002C20
:1046600021D1002B54D0C943002904D0FF284CD0BD
:104670001B2958DD01235B19041C75E7002B19D198
:10468000002D48D02B1C0E1CFF2403E72B1C041C00
:104690000E1CFFE61C1C2026D440B21A93405A1E62
:1046A00093412343A9E7FF282FD08024E404494203
:1046B0002343DDE7FF24002D00D1EBE68022DB0859
:1046C000D203134204D0ED08154201D12B1C0E1C5D
:1046D000DB00FF24DEE6002D00D1DBE65A1B500193
:1046E00000D41CE7EB1A0E1CD4E6002B0DD0FF24DF
:1046F000002D00D1CEE68022DB08D2031342E7D0A2
:10470000ED081542E4D12B1CE2E72B1CFF24C1E687
:104710002B1C041CBEE6802300229B04FF2402E71E
:10472000231C0022FFE61C1C2027CC40791A8B405A
:10473000591E8B4123439EE72B1CABE6012512E754
:104740000125D3E6FFFFFFFB4302590A4300C20FD6
:104750001B0E00207E2B0DDD9D2B0CDC8020000429
:104760000143952B0ADC9620C31AD9404842002AFF
:1047700000D1081C7047034BD018FBE7963B9940CB
:10478000F4E7C046FFFFFF7F10B5041E33D0FFF7EC
:1047900021FB9E231B1A962B09DC083884406402F7
:1047A000640ADBB26402DB05600A184310BD992B72
:1047B0000ADD0522121A211CD1400A1C011C1B31E2
:1047C0008C40611E8C411443052801DD421F94403A
:1047D000144A2240610704D00F210C40042C00D061
:1047E000043251010AD59F23181AFF2816D09401CC
:1047F000640AC3B2D6E700230024D3E7D208FF2B14
:1048000003D05402640ADBB2CCE7002A06D080242D
:10481000E40314436402640AFF23C3E7FF23002474
:10482000C0E7C046FFFFFFFB08B5031C081C191CAE
:1048300000F002F808BDFFFF38B5051C05480C1C48
:10484000131C002804D00220291C221C00E000BFF9
:1048500038BDC0460000000070B50E4B0E4D002460
:10486000ED1AAD101E1CAC4204D0A300F3589847BB
:104870000134F8E700F058FE084B094D0024ED1A0A
:10488000AD101E1CAC4204D0A300F358984701346D
:10489000F8E770BD34550000345500003455000071
:1048A0005055000008B5034B011C186800F02EF8A5
:1048B00008BDC0465C04002010B50023934203D01D
:1048C000CC5CC4540133F9E710BD70B5814201D30B
:1048D00000230CE08C18A042FAD28518131C013B6F
:1048E0000BD351426618F65C6918CE54F7E7934231
:1048F00003D0CC5CC4540133F9E770BD031C8218AB
:10490000934202D019700133FAE7704730B500299D
:1049100040D004390B68002B00DAC9181E4A13680E
:10492000141C002B02D14B60116033E099420FD26E
:1049300008680A189A4205D113685268C0180860BE
:104940004A6000E04B60216024E08A4203D8131CD7
:104950005A68002AF9D11D685C198C420BD109688C
:10496000691858181960904214D1146852680919CE
:1049700019605A600EE08C4202D90C23036009E0F2
:1049800008680C18944203D1146852680019086032
:104990004A60596030BDC0467808002070B50323D6
:1049A000CD1C9D430835061C0C2D01D20C2501E0C1
:1049B000002D3FDB8D423DD3204B1C681A1C211C6F
:1049C000002913D00868431B0DD40B2B02D90B60B0
:1049D000CC181EE08C4202D1636813601AE048686C
:1049E00060600C1C16E00C1C4968E9E7144C206858
:1049F000002803D1301C00F031F82060301C291C45
:104A000000F02CF8431C15D0C41C03239C438442A3
:104A10000AD12560201C0B300722231D9043C31AA6
:104A20000BD05A42E25008E0211A301C00F016F870
:104A30000130EED10C233360002070BD78080020D7
:104A40007408002008B50A1C0349031C0868191CD7
:104A500000F02DFB08BDC0465C04002038B5074CB3
:104A60000023051C081C2360FDF78AFD431C03D1AD
:104A70002368002B00D02B6038BDC046D40800202E
:104A80000EB400B59CB01DAB04CB822202A99200EB
:104A90008A810A4A02908A604A6101225242CA818E
:104AA000074A086110681D9A019300F07BF8029A8A
:104AB000002313701CB008BC03B01847FFFFFF7F32
:104AC0005C040020031C0A7801311A700133002AAB
:104AD000F9D170470023C25C0133002AFBD1581E74
:104AE0007047FFFFF0B58D6885B0071C0C1C039262
:104AF0000193AB4245D390228B89D20013423DD023
:104B000062690326564309692068F20F401A961914
:104B10000290021C0198013212187610964200D2BF
:104B2000161C381C5A050FD5311CFFF737FF051E20
:104B300013D0029A2169FFF7BFFEA289184B1340D8
:104B400080221343A38111E0321C00F0B0FA051E4D
:104B50000CD1381C2169FFF7D9FE0C233B60A389D7
:104B6000402213430120A381404217E0029B2561AC
:104B7000ED1825606661019DF61AA6600198A842AD
:104B800000D2019D2A1C20680399FFF79EFEA268AF
:104B90000020531BA36023685D19256005B0F0BD9C
:104BA0007FFBFFFFF0B59FB0039005938B890E1C30
:104BB000171C19060FD53269002A0CD14021FFF7C6
:104BC000EDFE30603061002803D103990C230B60A7
:104BD000C9E04023736106AD00236B6120236B762F
:104BE0003023AB763C1C2378002B03D1E21B0292CE
:104BF00011D003E0252BF9D00134F4E70398311CE0
:104C00003A1C029BFFF76EFF013000D1A6E06969F4
:104C1000029A8B186B612378002B00D19EE0012251
:104C200052426A606A4600235B3201342B60EB60BB
:104C3000AB601370AB654E4F2178381C052200F035
:104C40002BFA002807D0C71B2B680120B840184357
:104C500028600134EFE72B68D90603D56A46202186
:104C60005B3211701A0703D56A462B215B32117033
:104C700022782A2A01D0099B0EE0059A111D12689C
:104C80000591002A01DB099204E05242EA60022207
:104C900013432B60013409E02278303A092A04D802
:104CA0000A214B4301349B18F6E7099323782E2BF6
:104CB00018D163782A2B09D1059B02341A1D1B6871
:104CC0000592002B0DDA01235B420AE00134002338
:104CD0002278303A092A04D80A214B4301349B1820
:104CE000F6E70793234F2178381C032200F0D4F90C
:104CF000002806D0C71B2B684020B8401843286006
:104D0000013421781C480622671C297600F0C4F97A
:104D1000002812D0194B002B06D1059B0722073320
:104D200093430833059314E005AB00930398291CC3
:104D3000321C134B00E000BF07E005AB0093039863
:104D4000291C321C0E4B00F091F80490049901319B
:104D500004D06A69049953186B6143E7B3895A0612
:104D600001D40B9801E0012040421FB0F0BDC046C5
:104D7000F2540000F8540000FC5400000000000051
:104D8000E54A0000F7B5151C01930A698B68061CFB
:104D90000C1C934200DA131C221C2B604332127845
:104DA000002A01D001332B602068800602D52B68D1
:104DB00002332B60216806270F401FD0231C43338A
:104DC0001B785A1E9341226892061FD5E118403184
:104DD0003020C870211C5A1C45310978A218403275
:104DE0000233D17012E0221C301C019919320123C8
:104DF000089FB847013011D0009F01370097E06845
:104E00002968009F431A9F42EDDBD7E7221C301C24
:104E100001994332089FB847013002D10120404236
:104E200023E0206806212B68E26801400025042960
:104E300003D1D51AEB43DB171D40A26823699A42C0
:104E400001DDD31AED1800270097009FAF420BDA5F
:104E5000221C301C01991A320123089FB8470130E7
:104E6000DCD0009F0137EFE70020FEBDF0B50D1C40
:104E70008BB0433506920590079304950B7E0C1C6E
:104E8000109A6E2B00D1A7E011D8632B22D009D83D
:104E9000002B00D1B0E0582B00D0C0E045310B70A2
:104EA0007B4D4EE0642B1CD0692B1AD0B7E0732BDE
:104EB00000D1A5E009D86F2B29D0702B00D0AEE02F
:104EC0000E68202333430B6036E0752B1FD0782B00
:104ED00032D0A4E013680D1C191D423511601B6807
:104EE0009FE0216813680E0603D5191D11601E6826
:104EF00005E04806F9D5191D116000215E5E644B7E
:104F0000002E3BDA049D2D2276422A7036E021687D
:104F100013680E0603D5191D11601E6804E04806CB
:104F2000F9D5191D1E881160594B227E039308275D
:104F30006F2A1ED00A271CE0231C78214533554DCB
:104F4000197011682368081D039510601E0601D5AD
:104F50000E6802E05806FBD50E88D90702D520223C
:104F6000134323601027002E03D1226820239A4385
:104F70002260231C002243331A7001E003930A27A6
:104F80006368A360002B03DB25680422954325603A
:104F9000002E02D1049D002B0ED0049D301C391C24
:104FA000FEF7D2FE0398013D435C301C2B70391C88
:104FB000FEF786FE061EF1D1082F09D12168C90728
:104FC00006D5626823699A4202DC013D30232B70CA
:104FD000049E731B23612AE008681368496905066B
:104FE00004D5181D10601B68196005E04606F8D549
:104FF000181D10601B68198000232361049D16E0B2
:105000001368191D11601D68281CFFF763FD636894
:105010002061984200D923612069606004E0251C6A
:1050200042352B7001232361049E00233370079EB9
:1050300005980096211C09AA069BFFF7A3FE0130E4
:1050400002D10120404221E02A1C059806992369DB
:10505000079DA8470130F4D02668B60705D4099B00
:10506000E068984212DA181C10E00025E0680999FF
:10507000431A9D42F3DA221C05980699193201233E
:10508000079EB0470130DCD00135EFE70BB0F0BD33
:105090000355000014550000C9B28218904204D094
:1050A00003788B4202D00130F8E700207047F8B552
:1050B000061C0C1C151C002904D1111CFFF76EFCEA
:1050C000041C18E0002A03D1FFF720FC2C1C12E07E
:1050D00000F013F8A8420ED2301C291CFFF75EFC2A
:1050E000071E07D0211C2A1CFFF7E6FB301C211CE1
:1050F000FFF70CFC3C1C201CF8BD04390B68181F82
:10510000002B02DAC8581B18181F7047256C640062
:10511000256C75004720256320256C6420256420BC
:10512000256400656E6400742000350020473A0055
:105130002050445F73637265656E3A002050445F8F
:105140006C617365723A00556E6B6E6F776E20639B
:105150006F6D6D616E643A2000050E08090D0C0636
:10516000070F0B004417FF050E08090D0C06070F6B
:105170000B004417FFFFFFFFFFFFFFFFFFFFFF1ABA
:105180001BFFFFFF420000F840A0044001000000A8
:10519000420000F844A0044002000000C00000F8F3
:1051A00000C0044001000000000000F8049004402A
:1051B00002000000000000F8089004400400000015
:1051C000C00000F81CC0044080000000C00000F8CF
:1051D00010C0044010000000C00000F808C00440E7
:1051E00004000000C00000F80CC0044008000000EB
:1051F000800000F80CB0044008000000800000F8B7
:1052000010B0044010000000800000F818B0044006
:1052100040000000800000F81CB004408000000046
:10522000800000F814B0044020000000C00000F826
:1052300004C0044002000000800000F800B00440F8
:1052400001000000400000F800A004400100000040
:10525000400000F804A0044002000000400000F8F4
:105260000CA0044008000000400000F808A0044022
:1052700004000000C00000F814C00440200000003A
:10528000C00000F818C0044040000000800000F892
:1052900004B0044002000000800000F808B00440A0
:1052A00004000000020100F850D00440100000008B
:1052B000020100F854D0044020000000030100F86F
:1052C00078D0044040000000000000000000000012
:1052D000A9240000B32400008124000089240000D8
:1052E0009124000099240000A12400000000000087
:1052F0001519151519FFFFFF000100000703002015
:10530000120000000002000032030020950000009F
:1053100000030000E0030020000000000103090476
:105320001A0300200000000002030904C803002043
:105330000000000003030904E40300200000000053
:10534000000000000000000000000000FFFFFFFF61
:105350000000000000000000213800003938000083
:10536000F137000001380000F9370000093800006B
:105370007137000089370000A9370000B1370000FD
:10538000BB370000C5370000D1370000E13700000F
:105390001138000019380000413700004D37000077
:1053A0005937000065370000493800002D380000EB
:1053B00000000000000000006139000079390000A1
:1053C0003139000041390000393900004939000005
:1053D000B1380000C9380000E9380000F138000099
:1053E000FB380000053900001139000021390000A8
:1053F0005139000059390000813800008D38000013
:1054000099380000A5380000893900006D39000086
:105410000000000000000000A13A0000B93A0000BE
:10542000713A0000813A0000793A0000893A0000A0
:10543000F1390000093A0000293A0000313A000031
:105440003B3A0000453A0000513A0000613A000042
:10545000913A0000993A0000C1390000CD390000AE
:10546000D9390000E5390000C93A0000AD3A000022
:105470008C3F00003E3F00006C3F0000C63E000035
:105480006C3F0000623F00006C3F0000C63E000021
:105490003E3F00003E3F0000623F0000C63E00006D
:1054A000BE3E0000BE3E0000BE3E0000723F000057
:1054B000304300002A4300002A430000204300003C
:1054C000804200008042000016430000204300009C
:1054D000804200001643000080420000204300008C
:1054E0007E4200007E4200007E420000B843000081
:1054F0004300232D302B2000686C4C006566674507
:10550000464700303132333435363738394142433B
:1055100044454600303132333435363738396162EC
:105520006364656600FFFFFFF8B5C046F8BC08BCC1
:105530009E46704739040000310C0000A122000093
:10554000C124000065380000A5390000E53A0000DC
:10555000000000009C04002014050020AC04002082
:105560007C040020FC0400200A040000410E00001E
:10557000410E0000410E0000410E0000410E0000EF
:10558000410E0000410E0000410E0000410E0000DF
:10559000410E0000410E0000410E0000410E0000CF
:1055A000410E0000410E0000410E0000410E0000BF
:1055B000410E0000410E0000410E0000410E0000AF
:1055C000410E0000410E0000410E0000410E00009F
:1055D000410E0000410E0000FFFFFFFFFF00000032
:1055E000D80800200107081201010100000040C096
:1055F000168904000201020301001803540065002B
:1056000065006E00730079006400750069006E002B
:105610006F0009029500030100C032080B0002026E
:105620000201040904000001020201000524001027
:1056300001052401010104240206052406000107D6
:1056400005810310004009040100020A0000000760
:105650000502024000000705830240000009040221
:10566000000201030000072401000141000624029A
:1056700001010006240202020009240301030102C1
:10568000010009240302040101010009050502408B
:105690000000000005250101010905840240000009
:1056A0000000052501010300180354006500650092
:1056B0006E007300790020004D004900440049004D
:1056C000040309040C0300000000000000000000B7
:1056D00000000000000000000000000000000000CA
:1056E00000000000000000000000000000000000BA
:1056F000000000000000000000000000F054000066
:105700000000000000000000000000000000000099
:105710000000000000000000000000000000000089
:105720000000000000000000000000000000000079
:10573000000000000000000000000000FC0300204A
:00000001FF
